{
	"Checkpoint.sol": {
		"Checkpoint": {
			"abi": [
				{
					"anonymous": false,
					"inputs": [
						{
							"indexed": true,
							"internalType": "address",
							"name": "player",
							"type": "address"
						},
						{
							"indexed": false,
							"internalType": "uint256",
							"name": "amountDeposited",
							"type": "uint256"
						}
					],
					"name": "GamePlayed",
					"type": "event"
				},
				{
					"anonymous": false,
					"inputs": [
						{
							"indexed": true,
							"internalType": "address",
							"name": "player",
							"type": "address"
						},
						{
							"indexed": false,
							"internalType": "uint256",
							"name": "rewardAmount",
							"type": "uint256"
						}
					],
					"name": "RewardClaimed",
					"type": "event"
				},
				{
					"inputs": [],
					"name": "claimReward",
					"outputs": [],
					"stateMutability": "nonpayable",
					"type": "function"
				},
				{
					"inputs": [],
					"name": "depositedEther",
					"outputs": [
						{
							"internalType": "uint256",
							"name": "",
							"type": "uint256"
						}
					],
					"stateMutability": "view",
					"type": "function"
				},
				{
					"inputs": [],
					"name": "play",
					"outputs": [],
					"stateMutability": "payable",
					"type": "function"
				}
			],
			"devdoc": {
				"details": "A simple contract where players deposit Ether to reach certain milestones and earn rewards.",
				"kind": "dev",
				"methods": {
					"claimReward()": {
						"details": "Allows a player to claim their reward after the final milestone is reached. Emits a {RewardClaimed} event."
					},
					"play()": {
						"details": "Allows a player to play the game by depositing exactly 0.5 Ether. If the deposited amount reaches any of the milestones, the player is credited with the respective reward. Emits a {GamePlayed} event."
					}
				},
				"title": "CheckpointGame",
				"version": 1
			},
			"evm": {
				"assembly": "    /* \"Checkpoint.sol\":197:2982  contract Checkpoint {... */\n  mstore(0x40, 0x80)\n    /* \"Checkpoint.sol\":298:305  3 ether */\n  0x29a2241af62c0000\n    /* \"Checkpoint.sol\":271:305  uint256 payoutMileStone1 = 3 ether */\n  0x00\n  sstore\n    /* \"Checkpoint.sol\":339:346  2 ether */\n  0x1bc16d674ec80000\n    /* \"Checkpoint.sol\":312:346  uint256 mileStoneReward1 = 2 ether */\n  0x01\n  sstore\n    /* \"Checkpoint.sol\":380:387  5 ether */\n  0x4563918244f40000\n    /* \"Checkpoint.sol\":353:387  uint256 payoutMileStone2 = 5 ether */\n  0x02\n  sstore\n    /* \"Checkpoint.sol\":421:428  3 ether */\n  0x29a2241af62c0000\n    /* \"Checkpoint.sol\":394:428  uint256 mileStoneReward2 = 3 ether */\n  0x03\n  sstore\n    /* \"Checkpoint.sol\":462:470  10 ether */\n  0x8ac7230489e80000\n    /* \"Checkpoint.sol\":435:470  uint256 payoutMileStone3 = 10 ether */\n  0x04\n  sstore\n    /* \"Checkpoint.sol\":504:511  5 ether */\n  0x4563918244f40000\n    /* \"Checkpoint.sol\":477:511  uint256 mileStoneReward3 = 5 ether */\n  0x05\n  sstore\n    /* \"Checkpoint.sol\":197:2982  contract Checkpoint {... */\n  callvalue\n  dup1\n  iszero\n  tag_1\n  jumpi\n  0x00\n  dup1\n  revert\ntag_1:\n  pop\n  dataSize(sub_0)\n  dup1\n  dataOffset(sub_0)\n  0x00\n  codecopy\n  0x00\n  return\nstop\n\nsub_0: assembly {\n        /* \"Checkpoint.sol\":197:2982  contract Checkpoint {... */\n      mstore(0x40, 0x80)\n      jumpi(tag_1, lt(calldatasize, 0x04))\n      shr(0xe0, calldataload(0x00))\n      dup1\n      0x8d103cde\n      eq\n      tag_2\n      jumpi\n      dup1\n      0x93e84cd9\n      eq\n      tag_3\n      jumpi\n      dup1\n      0xb88a802f\n      eq\n      tag_4\n      jumpi\n    tag_1:\n      0x00\n      dup1\n      revert\n        /* \"Checkpoint.sol\":574:603  uint256 public depositedEther */\n    tag_2:\n      callvalue\n      dup1\n      iszero\n      tag_5\n      jumpi\n      0x00\n      dup1\n      revert\n    tag_5:\n      pop\n      tag_6\n      tag_7\n      jump\t// in\n    tag_6:\n      mload(0x40)\n      tag_8\n      swap2\n      swap1\n      tag_9\n      jump\t// in\n    tag_8:\n      mload(0x40)\n      dup1\n      swap2\n      sub\n      swap1\n      return\n        /* \"Checkpoint.sol\":1190:2210  function play() public payable {... */\n    tag_3:\n      tag_10\n      tag_11\n      jump\t// in\n    tag_10:\n      stop\n        /* \"Checkpoint.sol\":2364:2979  function claimReward() public {... */\n    tag_4:\n      callvalue\n      dup1\n      iszero\n      tag_12\n      jumpi\n      0x00\n      dup1\n      revert\n    tag_12:\n      pop\n      tag_13\n      tag_14\n      jump\t// in\n    tag_13:\n      stop\n        /* \"Checkpoint.sol\":574:603  uint256 public depositedEther */\n    tag_7:\n      sload(0x06)\n      dup2\n      jump\t// out\n        /* \"Checkpoint.sol\":1190:2210  function play() public payable {... */\n    tag_11:\n        /* \"Checkpoint.sol\":1307:1314  2 ether */\n      0x1bc16d674ec80000\n        /* \"Checkpoint.sol\":1294:1303  msg.value */\n      callvalue\n        /* \"Checkpoint.sol\":1294:1314  msg.value == 2 ether */\n      eq\n        /* \"Checkpoint.sol\":1286:1356  require(msg.value == 2 ether, \"You must send exactly 1 ether to play\") */\n      tag_16\n      jumpi\n      mload(0x40)\n      0x08c379a000000000000000000000000000000000000000000000000000000000\n      dup2\n      mstore\n      0x04\n      add\n      tag_17\n      swap1\n      tag_18\n      jump\t// in\n    tag_17:\n      mload(0x40)\n      dup1\n      swap2\n      sub\n      swap1\n      revert\n    tag_16:\n        /* \"Checkpoint.sol\":1433:1455  uint256 currentBalance */\n      0x00\n        /* \"Checkpoint.sol\":1475:1484  msg.value */\n      callvalue\n        /* \"Checkpoint.sol\":1458:1472  depositedEther */\n      sload(0x06)\n        /* \"Checkpoint.sol\":1458:1484  depositedEther + msg.value */\n      tag_19\n      swap2\n      swap1\n      tag_20\n      jump\t// in\n    tag_19:\n        /* \"Checkpoint.sol\":1433:1484  uint256 currentBalance = depositedEther + msg.value */\n      swap1\n      pop\n        /* \"Checkpoint.sol\":1523:1539  payoutMileStone3 */\n      sload(0x04)\n        /* \"Checkpoint.sol\":1505:1519  currentBalance */\n      dup2\n        /* \"Checkpoint.sol\":1505:1539  currentBalance <= payoutMileStone3 */\n      gt\n      iszero\n        /* \"Checkpoint.sol\":1497:1558  require(currentBalance <= payoutMileStone3, \"Game has ended\") */\n      tag_21\n      jumpi\n      mload(0x40)\n      0x08c379a000000000000000000000000000000000000000000000000000000000\n      dup2\n      mstore\n      0x04\n      add\n      tag_22\n      swap1\n      tag_23\n      jump\t// in\n    tag_22:\n      mload(0x40)\n      dup1\n      swap2\n      sub\n      swap1\n      revert\n    tag_21:\n        /* \"Checkpoint.sol\":1686:1702  payoutMileStone1 */\n      sload(0x00)\n        /* \"Checkpoint.sol\":1668:1682  currentBalance */\n      dup2\n        /* \"Checkpoint.sol\":1668:1702  currentBalance == payoutMileStone1 */\n      sub\n        /* \"Checkpoint.sol\":1664:2018  if (currentBalance == payoutMileStone1) {... */\n      tag_24\n      jumpi\n        /* \"Checkpoint.sol\":1750:1766  mileStoneReward1 */\n      sload(0x01)\n        /* \"Checkpoint.sol\":1719:1734  redeemableEther */\n      0x07\n        /* \"Checkpoint.sol\":1719:1746  redeemableEther[msg.sender] */\n      0x00\n        /* \"Checkpoint.sol\":1735:1745  msg.sender */\n      caller\n        /* \"Checkpoint.sol\":1719:1746  redeemableEther[msg.sender] */\n      0xffffffffffffffffffffffffffffffffffffffff\n      and\n      0xffffffffffffffffffffffffffffffffffffffff\n      and\n      dup2\n      mstore\n      0x20\n      add\n      swap1\n      dup2\n      mstore\n      0x20\n      add\n      0x00\n      keccak256\n      0x00\n        /* \"Checkpoint.sol\":1719:1766  redeemableEther[msg.sender] += mileStoneReward1 */\n      dup3\n      dup3\n      sload\n      tag_25\n      swap2\n      swap1\n      tag_20\n      jump\t// in\n    tag_25:\n      swap3\n      pop\n      pop\n      dup2\n      swap1\n      sstore\n      pop\n        /* \"Checkpoint.sol\":1664:2018  if (currentBalance == payoutMileStone1) {... */\n      jump(tag_26)\n    tag_24:\n        /* \"Checkpoint.sol\":1806:1822  payoutMileStone2 */\n      sload(0x02)\n        /* \"Checkpoint.sol\":1788:1802  currentBalance */\n      dup2\n        /* \"Checkpoint.sol\":1788:1822  currentBalance == payoutMileStone2 */\n      sub\n        /* \"Checkpoint.sol\":1784:2018  if (currentBalance == payoutMileStone2) {... */\n      tag_27\n      jumpi\n        /* \"Checkpoint.sol\":1870:1886  mileStoneReward2 */\n      sload(0x03)\n        /* \"Checkpoint.sol\":1839:1854  redeemableEther */\n      0x07\n        /* \"Checkpoint.sol\":1839:1866  redeemableEther[msg.sender] */\n      0x00\n        /* \"Checkpoint.sol\":1855:1865  msg.sender */\n      caller\n        /* \"Checkpoint.sol\":1839:1866  redeemableEther[msg.sender] */\n      0xffffffffffffffffffffffffffffffffffffffff\n      and\n      0xffffffffffffffffffffffffffffffffffffffff\n      and\n      dup2\n      mstore\n      0x20\n      add\n      swap1\n      dup2\n      mstore\n      0x20\n      add\n      0x00\n      keccak256\n      0x00\n        /* \"Checkpoint.sol\":1839:1886  redeemableEther[msg.sender] += mileStoneReward2 */\n      dup3\n      dup3\n      sload\n      tag_28\n      swap2\n      swap1\n      tag_20\n      jump\t// in\n    tag_28:\n      swap3\n      pop\n      pop\n      dup2\n      swap1\n      sstore\n      pop\n        /* \"Checkpoint.sol\":1784:2018  if (currentBalance == payoutMileStone2) {... */\n      jump(tag_29)\n    tag_27:\n        /* \"Checkpoint.sol\":1926:1942  payoutMileStone3 */\n      sload(0x04)\n        /* \"Checkpoint.sol\":1908:1922  currentBalance */\n      dup2\n        /* \"Checkpoint.sol\":1908:1942  currentBalance == payoutMileStone3 */\n      sub\n        /* \"Checkpoint.sol\":1904:2018  if (currentBalance == payoutMileStone3) {... */\n      tag_30\n      jumpi\n        /* \"Checkpoint.sol\":1990:2006  mileStoneReward3 */\n      sload(0x05)\n        /* \"Checkpoint.sol\":1959:1974  redeemableEther */\n      0x07\n        /* \"Checkpoint.sol\":1959:1986  redeemableEther[msg.sender] */\n      0x00\n        /* \"Checkpoint.sol\":1975:1985  msg.sender */\n      caller\n        /* \"Checkpoint.sol\":1959:1986  redeemableEther[msg.sender] */\n      0xffffffffffffffffffffffffffffffffffffffff\n      and\n      0xffffffffffffffffffffffffffffffffffffffff\n      and\n      dup2\n      mstore\n      0x20\n      add\n      swap1\n      dup2\n      mstore\n      0x20\n      add\n      0x00\n      keccak256\n      0x00\n        /* \"Checkpoint.sol\":1959:2006  redeemableEther[msg.sender] += mileStoneReward3 */\n      dup3\n      dup3\n      sload\n      tag_31\n      swap2\n      swap1\n      tag_20\n      jump\t// in\n    tag_31:\n      swap3\n      pop\n      pop\n      dup2\n      swap1\n      sstore\n      pop\n        /* \"Checkpoint.sol\":1904:2018  if (currentBalance == payoutMileStone3) {... */\n    tag_30:\n        /* \"Checkpoint.sol\":1784:2018  if (currentBalance == payoutMileStone2) {... */\n    tag_29:\n        /* \"Checkpoint.sol\":1664:2018  if (currentBalance == payoutMileStone1) {... */\n    tag_26:\n        /* \"Checkpoint.sol\":2104:2113  msg.value */\n      callvalue\n        /* \"Checkpoint.sol\":2086:2100  depositedEther */\n      0x06\n      0x00\n        /* \"Checkpoint.sol\":2086:2113  depositedEther += msg.value */\n      dup3\n      dup3\n      sload\n      tag_32\n      swap2\n      swap1\n      tag_20\n      jump\t// in\n    tag_32:\n      swap3\n      pop\n      pop\n      dup2\n      swap1\n      sstore\n      pop\n        /* \"Checkpoint.sol\":2180:2190  msg.sender */\n      caller\n        /* \"Checkpoint.sol\":2169:2202  GamePlayed(msg.sender, msg.value) */\n      0xffffffffffffffffffffffffffffffffffffffff\n      and\n      0x5cf252cfe7d6524b0fd4e37008a2aa681dd2af06b44df112e00da3835515a311\n        /* \"Checkpoint.sol\":2192:2201  msg.value */\n      callvalue\n        /* \"Checkpoint.sol\":2169:2202  GamePlayed(msg.sender, msg.value) */\n      mload(0x40)\n      tag_33\n      swap2\n      swap1\n      tag_9\n      jump\t// in\n    tag_33:\n      mload(0x40)\n      dup1\n      swap2\n      sub\n      swap1\n      log2\n        /* \"Checkpoint.sol\":1221:2210  {... */\n      pop\n        /* \"Checkpoint.sol\":1190:2210  function play() public payable {... */\n      jump\t// out\n        /* \"Checkpoint.sol\":2364:2979  function claimReward() public {... */\n    tag_14:\n        /* \"Checkpoint.sol\":2487:2503  payoutMileStone3 */\n      sload(0x04)\n        /* \"Checkpoint.sol\":2469:2483  depositedEther */\n      sload(0x06)\n        /* \"Checkpoint.sol\":2469:2503  depositedEther >= payoutMileStone3 */\n      lt\n      iszero\n        /* \"Checkpoint.sol\":2461:2536  require(depositedEther >= payoutMileStone3, \"The game is not complete yet\") */\n      tag_35\n      jumpi\n      mload(0x40)\n      0x08c379a000000000000000000000000000000000000000000000000000000000\n      dup2\n      mstore\n      0x04\n      add\n      tag_36\n      swap1\n      tag_37\n      jump\t// in\n    tag_36:\n      mload(0x40)\n      dup1\n      swap2\n      sub\n      swap1\n      revert\n    tag_35:\n        /* \"Checkpoint.sol\":2639:2640  0 */\n      0x00\n        /* \"Checkpoint.sol\":2609:2624  redeemableEther */\n      0x07\n        /* \"Checkpoint.sol\":2609:2636  redeemableEther[msg.sender] */\n      0x00\n        /* \"Checkpoint.sol\":2625:2635  msg.sender */\n      caller\n        /* \"Checkpoint.sol\":2609:2636  redeemableEther[msg.sender] */\n      0xffffffffffffffffffffffffffffffffffffffff\n      and\n      0xffffffffffffffffffffffffffffffffffffffff\n      and\n      dup2\n      mstore\n      0x20\n      add\n      swap1\n      dup2\n      mstore\n      0x20\n      add\n      0x00\n      keccak256\n      sload\n        /* \"Checkpoint.sol\":2609:2640  redeemableEther[msg.sender] > 0 */\n      gt\n        /* \"Checkpoint.sol\":2601:2663  require(redeemableEther[msg.sender] > 0, \"No reward to claim\") */\n      tag_38\n      jumpi\n      mload(0x40)\n      0x08c379a000000000000000000000000000000000000000000000000000000000\n      dup2\n      mstore\n      0x04\n      add\n      tag_39\n      swap1\n      tag_40\n      jump\t// in\n    tag_39:\n      mload(0x40)\n      dup1\n      swap2\n      sub\n      swap1\n      revert\n    tag_38:\n        /* \"Checkpoint.sol\":2722:2744  uint256 transferAmount */\n      0x00\n        /* \"Checkpoint.sol\":2747:2762  redeemableEther */\n      0x07\n        /* \"Checkpoint.sol\":2747:2774  redeemableEther[msg.sender] */\n      0x00\n        /* \"Checkpoint.sol\":2763:2773  msg.sender */\n      caller\n        /* \"Checkpoint.sol\":2747:2774  redeemableEther[msg.sender] */\n      0xffffffffffffffffffffffffffffffffffffffff\n      and\n      0xffffffffffffffffffffffffffffffffffffffff\n      and\n      dup2\n      mstore\n      0x20\n      add\n      swap1\n      dup2\n      mstore\n      0x20\n      add\n      0x00\n      keccak256\n      sload\n        /* \"Checkpoint.sol\":2722:2774  uint256 transferAmount = redeemableEther[msg.sender] */\n      swap1\n      pop\n        /* \"Checkpoint.sol\":2815:2816  0 */\n      0x00\n        /* \"Checkpoint.sol\":2785:2800  redeemableEther */\n      0x07\n        /* \"Checkpoint.sol\":2785:2812  redeemableEther[msg.sender] */\n      0x00\n        /* \"Checkpoint.sol\":2801:2811  msg.sender */\n      caller\n        /* \"Checkpoint.sol\":2785:2812  redeemableEther[msg.sender] */\n      0xffffffffffffffffffffffffffffffffffffffff\n      and\n      0xffffffffffffffffffffffffffffffffffffffff\n      and\n      dup2\n      mstore\n      0x20\n      add\n      swap1\n      dup2\n      mstore\n      0x20\n      add\n      0x00\n      keccak256\n        /* \"Checkpoint.sol\":2785:2816  redeemableEther[msg.sender] = 0 */\n      dup2\n      swap1\n      sstore\n      pop\n        /* \"Checkpoint.sol\":2835:2845  msg.sender */\n      caller\n        /* \"Checkpoint.sol\":2827:2855  payable(msg.sender).transfer */\n      0xffffffffffffffffffffffffffffffffffffffff\n      and\n        /* \"Checkpoint.sol\":2827:2871  payable(msg.sender).transfer(transferAmount) */\n      0x08fc\n        /* \"Checkpoint.sol\":2856:2870  transferAmount */\n      dup3\n        /* \"Checkpoint.sol\":2827:2871  payable(msg.sender).transfer(transferAmount) */\n      swap1\n      dup2\n      iszero\n      mul\n      swap1\n      mload(0x40)\n      0x00\n      mload(0x40)\n      dup1\n      dup4\n      sub\n      dup2\n      dup6\n      dup9\n      dup9\n      call\n      swap4\n      pop\n      pop\n      pop\n      pop\n      iszero\n      dup1\n      iszero\n      tag_42\n      jumpi\n      returndatasize\n      0x00\n      dup1\n      returndatacopy\n      revert(0x00, returndatasize)\n    tag_42:\n      pop\n        /* \"Checkpoint.sol\":2944:2954  msg.sender */\n      caller\n        /* \"Checkpoint.sol\":2930:2971  RewardClaimed(msg.sender, transferAmount) */\n      0xffffffffffffffffffffffffffffffffffffffff\n      and\n      0x106f923f993c2149d49b4255ff723acafa1f2d94393f561d3eda32ae348f7241\n        /* \"Checkpoint.sol\":2956:2970  transferAmount */\n      dup3\n        /* \"Checkpoint.sol\":2930:2971  RewardClaimed(msg.sender, transferAmount) */\n      mload(0x40)\n      tag_43\n      swap2\n      swap1\n      tag_9\n      jump\t// in\n    tag_43:\n      mload(0x40)\n      dup1\n      swap2\n      sub\n      swap1\n      log2\n        /* \"Checkpoint.sol\":2394:2979  {... */\n      pop\n        /* \"Checkpoint.sol\":2364:2979  function claimReward() public {... */\n      jump\t// out\n        /* \"#utility.yul\":7:84   */\n    tag_44:\n        /* \"#utility.yul\":44:51   */\n      0x00\n        /* \"#utility.yul\":73:78   */\n      dup2\n        /* \"#utility.yul\":62:78   */\n      swap1\n      pop\n        /* \"#utility.yul\":7:84   */\n      swap2\n      swap1\n      pop\n      jump\t// out\n        /* \"#utility.yul\":90:208   */\n    tag_45:\n        /* \"#utility.yul\":177:201   */\n      tag_59\n        /* \"#utility.yul\":195:200   */\n      dup2\n        /* \"#utility.yul\":177:201   */\n      tag_44\n      jump\t// in\n    tag_59:\n        /* \"#utility.yul\":172:175   */\n      dup3\n        /* \"#utility.yul\":165:202   */\n      mstore\n        /* \"#utility.yul\":90:208   */\n      pop\n      pop\n      jump\t// out\n        /* \"#utility.yul\":214:436   */\n    tag_9:\n        /* \"#utility.yul\":307:311   */\n      0x00\n        /* \"#utility.yul\":345:347   */\n      0x20\n        /* \"#utility.yul\":334:343   */\n      dup3\n        /* \"#utility.yul\":330:348   */\n      add\n        /* \"#utility.yul\":322:348   */\n      swap1\n      pop\n        /* \"#utility.yul\":358:429   */\n      tag_61\n        /* \"#utility.yul\":426:427   */\n      0x00\n        /* \"#utility.yul\":415:424   */\n      dup4\n        /* \"#utility.yul\":411:428   */\n      add\n        /* \"#utility.yul\":402:408   */\n      dup5\n        /* \"#utility.yul\":358:429   */\n      tag_45\n      jump\t// in\n    tag_61:\n        /* \"#utility.yul\":214:436   */\n      swap3\n      swap2\n      pop\n      pop\n      jump\t// out\n        /* \"#utility.yul\":442:611   */\n    tag_46:\n        /* \"#utility.yul\":526:537   */\n      0x00\n        /* \"#utility.yul\":560:566   */\n      dup3\n        /* \"#utility.yul\":555:558   */\n      dup3\n        /* \"#utility.yul\":548:567   */\n      mstore\n        /* \"#utility.yul\":600:604   */\n      0x20\n        /* \"#utility.yul\":595:598   */\n      dup3\n        /* \"#utility.yul\":591:605   */\n      add\n        /* \"#utility.yul\":576:605   */\n      swap1\n      pop\n        /* \"#utility.yul\":442:611   */\n      swap3\n      swap2\n      pop\n      pop\n      jump\t// out\n        /* \"#utility.yul\":617:841   */\n    tag_47:\n        /* \"#utility.yul\":757:791   */\n      0x596f75206d7573742073656e642065786163746c79203120657468657220746f\n        /* \"#utility.yul\":753:754   */\n      0x00\n        /* \"#utility.yul\":745:751   */\n      dup3\n        /* \"#utility.yul\":741:755   */\n      add\n        /* \"#utility.yul\":734:792   */\n      mstore\n        /* \"#utility.yul\":826:833   */\n      0x20706c6179000000000000000000000000000000000000000000000000000000\n        /* \"#utility.yul\":821:823   */\n      0x20\n        /* \"#utility.yul\":813:819   */\n      dup3\n        /* \"#utility.yul\":809:824   */\n      add\n        /* \"#utility.yul\":802:834   */\n      mstore\n        /* \"#utility.yul\":617:841   */\n      pop\n      jump\t// out\n        /* \"#utility.yul\":847:1213   */\n    tag_48:\n        /* \"#utility.yul\":989:992   */\n      0x00\n        /* \"#utility.yul\":1010:1077   */\n      tag_65\n        /* \"#utility.yul\":1074:1076   */\n      0x25\n        /* \"#utility.yul\":1069:1072   */\n      dup4\n        /* \"#utility.yul\":1010:1077   */\n      tag_46\n      jump\t// in\n    tag_65:\n        /* \"#utility.yul\":1003:1077   */\n      swap2\n      pop\n        /* \"#utility.yul\":1086:1179   */\n      tag_66\n        /* \"#utility.yul\":1175:1178   */\n      dup3\n        /* \"#utility.yul\":1086:1179   */\n      tag_47\n      jump\t// in\n    tag_66:\n        /* \"#utility.yul\":1204:1206   */\n      0x40\n        /* \"#utility.yul\":1199:1202   */\n      dup3\n        /* \"#utility.yul\":1195:1207   */\n      add\n        /* \"#utility.yul\":1188:1207   */\n      swap1\n      pop\n        /* \"#utility.yul\":847:1213   */\n      swap2\n      swap1\n      pop\n      jump\t// out\n        /* \"#utility.yul\":1219:1638   */\n    tag_18:\n        /* \"#utility.yul\":1385:1389   */\n      0x00\n        /* \"#utility.yul\":1423:1425   */\n      0x20\n        /* \"#utility.yul\":1412:1421   */\n      dup3\n        /* \"#utility.yul\":1408:1426   */\n      add\n        /* \"#utility.yul\":1400:1426   */\n      swap1\n      pop\n        /* \"#utility.yul\":1472:1481   */\n      dup2\n        /* \"#utility.yul\":1466:1470   */\n      dup2\n        /* \"#utility.yul\":1462:1482   */\n      sub\n        /* \"#utility.yul\":1458:1459   */\n      0x00\n        /* \"#utility.yul\":1447:1456   */\n      dup4\n        /* \"#utility.yul\":1443:1460   */\n      add\n        /* \"#utility.yul\":1436:1483   */\n      mstore\n        /* \"#utility.yul\":1500:1631   */\n      tag_68\n        /* \"#utility.yul\":1626:1630   */\n      dup2\n        /* \"#utility.yul\":1500:1631   */\n      tag_48\n      jump\t// in\n    tag_68:\n        /* \"#utility.yul\":1492:1631   */\n      swap1\n      pop\n        /* \"#utility.yul\":1219:1638   */\n      swap2\n      swap1\n      pop\n      jump\t// out\n        /* \"#utility.yul\":1644:1824   */\n    tag_49:\n        /* \"#utility.yul\":1692:1769   */\n      0x4e487b7100000000000000000000000000000000000000000000000000000000\n        /* \"#utility.yul\":1689:1690   */\n      0x00\n        /* \"#utility.yul\":1682:1770   */\n      mstore\n        /* \"#utility.yul\":1789:1793   */\n      0x11\n        /* \"#utility.yul\":1786:1787   */\n      0x04\n        /* \"#utility.yul\":1779:1794   */\n      mstore\n        /* \"#utility.yul\":1813:1817   */\n      0x24\n        /* \"#utility.yul\":1810:1811   */\n      0x00\n        /* \"#utility.yul\":1803:1818   */\n      revert\n        /* \"#utility.yul\":1830:2135   */\n    tag_20:\n        /* \"#utility.yul\":1870:1873   */\n      0x00\n        /* \"#utility.yul\":1889:1909   */\n      tag_71\n        /* \"#utility.yul\":1907:1908   */\n      dup3\n        /* \"#utility.yul\":1889:1909   */\n      tag_44\n      jump\t// in\n    tag_71:\n        /* \"#utility.yul\":1884:1909   */\n      swap2\n      pop\n        /* \"#utility.yul\":1923:1943   */\n      tag_72\n        /* \"#utility.yul\":1941:1942   */\n      dup4\n        /* \"#utility.yul\":1923:1943   */\n      tag_44\n      jump\t// in\n    tag_72:\n        /* \"#utility.yul\":1918:1943   */\n      swap3\n      pop\n        /* \"#utility.yul\":2077:2078   */\n      dup3\n        /* \"#utility.yul\":2009:2075   */\n      0xffffffffffffffffffffffffffffffffffffffffffffffffffffffffffffffff\n        /* \"#utility.yul\":2005:2079   */\n      sub\n        /* \"#utility.yul\":2002:2003   */\n      dup3\n        /* \"#utility.yul\":1999:2080   */\n      gt\n        /* \"#utility.yul\":1996:2103   */\n      iszero\n      tag_73\n      jumpi\n        /* \"#utility.yul\":2083:2101   */\n      tag_74\n      tag_49\n      jump\t// in\n    tag_74:\n        /* \"#utility.yul\":1996:2103   */\n    tag_73:\n        /* \"#utility.yul\":2127:2128   */\n      dup3\n        /* \"#utility.yul\":2124:2125   */\n      dup3\n        /* \"#utility.yul\":2120:2129   */\n      add\n        /* \"#utility.yul\":2113:2129   */\n      swap1\n      pop\n        /* \"#utility.yul\":1830:2135   */\n      swap3\n      swap2\n      pop\n      pop\n      jump\t// out\n        /* \"#utility.yul\":2141:2305   */\n    tag_50:\n        /* \"#utility.yul\":2281:2297   */\n      0x47616d652068617320656e646564000000000000000000000000000000000000\n        /* \"#utility.yul\":2277:2278   */\n      0x00\n        /* \"#utility.yul\":2269:2275   */\n      dup3\n        /* \"#utility.yul\":2265:2279   */\n      add\n        /* \"#utility.yul\":2258:2298   */\n      mstore\n        /* \"#utility.yul\":2141:2305   */\n      pop\n      jump\t// out\n        /* \"#utility.yul\":2311:2677   */\n    tag_51:\n        /* \"#utility.yul\":2453:2456   */\n      0x00\n        /* \"#utility.yul\":2474:2541   */\n      tag_77\n        /* \"#utility.yul\":2538:2540   */\n      0x0e\n        /* \"#utility.yul\":2533:2536   */\n      dup4\n        /* \"#utility.yul\":2474:2541   */\n      tag_46\n      jump\t// in\n    tag_77:\n        /* \"#utility.yul\":2467:2541   */\n      swap2\n      pop\n        /* \"#utility.yul\":2550:2643   */\n      tag_78\n        /* \"#utility.yul\":2639:2642   */\n      dup3\n        /* \"#utility.yul\":2550:2643   */\n      tag_50\n      jump\t// in\n    tag_78:\n        /* \"#utility.yul\":2668:2670   */\n      0x20\n        /* \"#utility.yul\":2663:2666   */\n      dup3\n        /* \"#utility.yul\":2659:2671   */\n      add\n        /* \"#utility.yul\":2652:2671   */\n      swap1\n      pop\n        /* \"#utility.yul\":2311:2677   */\n      swap2\n      swap1\n      pop\n      jump\t// out\n        /* \"#utility.yul\":2683:3102   */\n    tag_23:\n        /* \"#utility.yul\":2849:2853   */\n      0x00\n        /* \"#utility.yul\":2887:2889   */\n      0x20\n        /* \"#utility.yul\":2876:2885   */\n      dup3\n        /* \"#utility.yul\":2872:2890   */\n      add\n        /* \"#utility.yul\":2864:2890   */\n      swap1\n      pop\n        /* \"#utility.yul\":2936:2945   */\n      dup2\n        /* \"#utility.yul\":2930:2934   */\n      dup2\n        /* \"#utility.yul\":2926:2946   */\n      sub\n        /* \"#utility.yul\":2922:2923   */\n      0x00\n        /* \"#utility.yul\":2911:2920   */\n      dup4\n        /* \"#utility.yul\":2907:2924   */\n      add\n        /* \"#utility.yul\":2900:2947   */\n      mstore\n        /* \"#utility.yul\":2964:3095   */\n      tag_80\n        /* \"#utility.yul\":3090:3094   */\n      dup2\n        /* \"#utility.yul\":2964:3095   */\n      tag_51\n      jump\t// in\n    tag_80:\n        /* \"#utility.yul\":2956:3095   */\n      swap1\n      pop\n        /* \"#utility.yul\":2683:3102   */\n      swap2\n      swap1\n      pop\n      jump\t// out\n        /* \"#utility.yul\":3108:3286   */\n    tag_52:\n        /* \"#utility.yul\":3248:3278   */\n      0x5468652067616d65206973206e6f7420636f6d706c6574652079657400000000\n        /* \"#utility.yul\":3244:3245   */\n      0x00\n        /* \"#utility.yul\":3236:3242   */\n      dup3\n        /* \"#utility.yul\":3232:3246   */\n      add\n        /* \"#utility.yul\":3225:3279   */\n      mstore\n        /* \"#utility.yul\":3108:3286   */\n      pop\n      jump\t// out\n        /* \"#utility.yul\":3292:3658   */\n    tag_53:\n        /* \"#utility.yul\":3434:3437   */\n      0x00\n        /* \"#utility.yul\":3455:3522   */\n      tag_83\n        /* \"#utility.yul\":3519:3521   */\n      0x1c\n        /* \"#utility.yul\":3514:3517   */\n      dup4\n        /* \"#utility.yul\":3455:3522   */\n      tag_46\n      jump\t// in\n    tag_83:\n        /* \"#utility.yul\":3448:3522   */\n      swap2\n      pop\n        /* \"#utility.yul\":3531:3624   */\n      tag_84\n        /* \"#utility.yul\":3620:3623   */\n      dup3\n        /* \"#utility.yul\":3531:3624   */\n      tag_52\n      jump\t// in\n    tag_84:\n        /* \"#utility.yul\":3649:3651   */\n      0x20\n        /* \"#utility.yul\":3644:3647   */\n      dup3\n        /* \"#utility.yul\":3640:3652   */\n      add\n        /* \"#utility.yul\":3633:3652   */\n      swap1\n      pop\n        /* \"#utility.yul\":3292:3658   */\n      swap2\n      swap1\n      pop\n      jump\t// out\n        /* \"#utility.yul\":3664:4083   */\n    tag_37:\n        /* \"#utility.yul\":3830:3834   */\n      0x00\n        /* \"#utility.yul\":3868:3870   */\n      0x20\n        /* \"#utility.yul\":3857:3866   */\n      dup3\n        /* \"#utility.yul\":3853:3871   */\n      add\n        /* \"#utility.yul\":3845:3871   */\n      swap1\n      pop\n        /* \"#utility.yul\":3917:3926   */\n      dup2\n        /* \"#utility.yul\":3911:3915   */\n      dup2\n        /* \"#utility.yul\":3907:3927   */\n      sub\n        /* \"#utility.yul\":3903:3904   */\n      0x00\n        /* \"#utility.yul\":3892:3901   */\n      dup4\n        /* \"#utility.yul\":3888:3905   */\n      add\n        /* \"#utility.yul\":3881:3928   */\n      mstore\n        /* \"#utility.yul\":3945:4076   */\n      tag_86\n        /* \"#utility.yul\":4071:4075   */\n      dup2\n        /* \"#utility.yul\":3945:4076   */\n      tag_53\n      jump\t// in\n    tag_86:\n        /* \"#utility.yul\":3937:4076   */\n      swap1\n      pop\n        /* \"#utility.yul\":3664:4083   */\n      swap2\n      swap1\n      pop\n      jump\t// out\n        /* \"#utility.yul\":4089:4257   */\n    tag_54:\n        /* \"#utility.yul\":4229:4249   */\n      0x4e6f2072657761726420746f20636c61696d0000000000000000000000000000\n        /* \"#utility.yul\":4225:4226   */\n      0x00\n        /* \"#utility.yul\":4217:4223   */\n      dup3\n        /* \"#utility.yul\":4213:4227   */\n      add\n        /* \"#utility.yul\":4206:4250   */\n      mstore\n        /* \"#utility.yul\":4089:4257   */\n      pop\n      jump\t// out\n        /* \"#utility.yul\":4263:4629   */\n    tag_55:\n        /* \"#utility.yul\":4405:4408   */\n      0x00\n        /* \"#utility.yul\":4426:4493   */\n      tag_89\n        /* \"#utility.yul\":4490:4492   */\n      0x12\n        /* \"#utility.yul\":4485:4488   */\n      dup4\n        /* \"#utility.yul\":4426:4493   */\n      tag_46\n      jump\t// in\n    tag_89:\n        /* \"#utility.yul\":4419:4493   */\n      swap2\n      pop\n        /* \"#utility.yul\":4502:4595   */\n      tag_90\n        /* \"#utility.yul\":4591:4594   */\n      dup3\n        /* \"#utility.yul\":4502:4595   */\n      tag_54\n      jump\t// in\n    tag_90:\n        /* \"#utility.yul\":4620:4622   */\n      0x20\n        /* \"#utility.yul\":4615:4618   */\n      dup3\n        /* \"#utility.yul\":4611:4623   */\n      add\n        /* \"#utility.yul\":4604:4623   */\n      swap1\n      pop\n        /* \"#utility.yul\":4263:4629   */\n      swap2\n      swap1\n      pop\n      jump\t// out\n        /* \"#utility.yul\":4635:5054   */\n    tag_40:\n        /* \"#utility.yul\":4801:4805   */\n      0x00\n        /* \"#utility.yul\":4839:4841   */\n      0x20\n        /* \"#utility.yul\":4828:4837   */\n      dup3\n        /* \"#utility.yul\":4824:4842   */\n      add\n        /* \"#utility.yul\":4816:4842   */\n      swap1\n      pop\n        /* \"#utility.yul\":4888:4897   */\n      dup2\n        /* \"#utility.yul\":4882:4886   */\n      dup2\n        /* \"#utility.yul\":4878:4898   */\n      sub\n        /* \"#utility.yul\":4874:4875   */\n      0x00\n        /* \"#utility.yul\":4863:4872   */\n      dup4\n        /* \"#utility.yul\":4859:4876   */\n      add\n        /* \"#utility.yul\":4852:4899   */\n      mstore\n        /* \"#utility.yul\":4916:5047   */\n      tag_92\n        /* \"#utility.yul\":5042:5046   */\n      dup2\n        /* \"#utility.yul\":4916:5047   */\n      tag_55\n      jump\t// in\n    tag_92:\n        /* \"#utility.yul\":4908:5047   */\n      swap1\n      pop\n        /* \"#utility.yul\":4635:5054   */\n      swap2\n      swap1\n      pop\n      jump\t// out\n\n    auxdata: 0xa2646970667358221220444afe26040f0d7281f4d9e83bd8dfb4249fcd1229fc11b26fde04655a0381ae64736f6c634300080d0033\n}\n",
				"bytecode": {
					"linkReferences": {},
					"object": "60806040526729a2241af62c0000600055671bc16d674ec80000600155674563918244f400006002556729a2241af62c0000600355678ac7230489e80000600455674563918244f4000060055534801561005857600080fd5b50610786806100686000396000f3fe6080604052600436106100345760003560e01c80638d103cde1461003957806393e84cd914610064578063b88a802f1461006e575b600080fd5b34801561004557600080fd5b5061004e610085565b60405161005b91906104c9565b60405180910390f35b61006c61008b565b005b34801561007a57600080fd5b506100836102c6565b005b60065481565b671bc16d674ec8000034146100d5576040517f08c379a00000000000000000000000000000000000000000000000000000000081526004016100cc90610567565b60405180910390fd5b6000346006546100e591906105b6565b905060045481111561012c576040517f08c379a000000000000000000000000000000000000000000000000000000000815260040161012390610658565b60405180910390fd5b600054810361019257600154600760003373ffffffffffffffffffffffffffffffffffffffff1673ffffffffffffffffffffffffffffffffffffffff168152602001908152602001600020600082825461018691906105b6565b9250508190555061025c565b60025481036101f857600354600760003373ffffffffffffffffffffffffffffffffffffffff1673ffffffffffffffffffffffffffffffffffffffff16815260200190815260200160002060008282546101ec91906105b6565b9250508190555061025b565b600454810361025a57600554600760003373ffffffffffffffffffffffffffffffffffffffff1673ffffffffffffffffffffffffffffffffffffffff168152602001908152602001600020600082825461025291906105b6565b925050819055505b5b5b346006600082825461026e91906105b6565b925050819055503373ffffffffffffffffffffffffffffffffffffffff167f5cf252cfe7d6524b0fd4e37008a2aa681dd2af06b44df112e00da3835515a311346040516102bb91906104c9565b60405180910390a250565b600454600654101561030d576040517f08c379a0000000000000000000000000000000000000000000000000000000008152600401610304906106c4565b60405180910390fd5b6000600760003373ffffffffffffffffffffffffffffffffffffffff1673ffffffffffffffffffffffffffffffffffffffff168152602001908152602001600020541161038f576040517f08c379a000000000000000000000000000000000000000000000000000000000815260040161038690610730565b60405180910390fd5b6000600760003373ffffffffffffffffffffffffffffffffffffffff1673ffffffffffffffffffffffffffffffffffffffff1681526020019081526020016000205490506000600760003373ffffffffffffffffffffffffffffffffffffffff1673ffffffffffffffffffffffffffffffffffffffff168152602001908152602001600020819055503373ffffffffffffffffffffffffffffffffffffffff166108fc829081150290604051600060405180830381858888f1935050505015801561045e573d6000803e3d6000fd5b503373ffffffffffffffffffffffffffffffffffffffff167f106f923f993c2149d49b4255ff723acafa1f2d94393f561d3eda32ae348f7241826040516104a591906104c9565b60405180910390a250565b6000819050919050565b6104c3816104b0565b82525050565b60006020820190506104de60008301846104ba565b92915050565b600082825260208201905092915050565b7f596f75206d7573742073656e642065786163746c79203120657468657220746f60008201527f20706c6179000000000000000000000000000000000000000000000000000000602082015250565b60006105516025836104e4565b915061055c826104f5565b604082019050919050565b6000602082019050818103600083015261058081610544565b9050919050565b7f4e487b7100000000000000000000000000000000000000000000000000000000600052601160045260246000fd5b60006105c1826104b0565b91506105cc836104b0565b9250827fffffffffffffffffffffffffffffffffffffffffffffffffffffffffffffffff0382111561060157610600610587565b5b828201905092915050565b7f47616d652068617320656e646564000000000000000000000000000000000000600082015250565b6000610642600e836104e4565b915061064d8261060c565b602082019050919050565b6000602082019050818103600083015261067181610635565b9050919050565b7f5468652067616d65206973206e6f7420636f6d706c6574652079657400000000600082015250565b60006106ae601c836104e4565b91506106b982610678565b602082019050919050565b600060208201905081810360008301526106dd816106a1565b9050919050565b7f4e6f2072657761726420746f20636c61696d0000000000000000000000000000600082015250565b600061071a6012836104e4565b9150610725826106e4565b602082019050919050565b600060208201905081810360008301526107498161070d565b905091905056fea2646970667358221220444afe26040f0d7281f4d9e83bd8dfb4249fcd1229fc11b26fde04655a0381ae64736f6c634300080d0033",
					"opcodes": "PUSH1 0x80 PUSH1 0x40 MSTORE PUSH8 0x29A2241AF62C0000 PUSH1 0x0 SSTORE PUSH8 0x1BC16D674EC80000 PUSH1 0x1 SSTORE PUSH8 0x4563918244F40000 PUSH1 0x2 SSTORE PUSH8 0x29A2241AF62C0000 PUSH1 0x3 SSTORE PUSH8 0x8AC7230489E80000 PUSH1 0x4 SSTORE PUSH8 0x4563918244F40000 PUSH1 0x5 SSTORE CALLVALUE DUP1 ISZERO PUSH2 0x58 JUMPI PUSH1 0x0 DUP1 REVERT JUMPDEST POP PUSH2 0x786 DUP1 PUSH2 0x68 PUSH1 0x0 CODECOPY PUSH1 0x0 RETURN INVALID PUSH1 0x80 PUSH1 0x40 MSTORE PUSH1 0x4 CALLDATASIZE LT PUSH2 0x34 JUMPI PUSH1 0x0 CALLDATALOAD PUSH1 0xE0 SHR DUP1 PUSH4 0x8D103CDE EQ PUSH2 0x39 JUMPI DUP1 PUSH4 0x93E84CD9 EQ PUSH2 0x64 JUMPI DUP1 PUSH4 0xB88A802F EQ PUSH2 0x6E JUMPI JUMPDEST PUSH1 0x0 DUP1 REVERT JUMPDEST CALLVALUE DUP1 ISZERO PUSH2 0x45 JUMPI PUSH1 0x0 DUP1 REVERT JUMPDEST POP PUSH2 0x4E PUSH2 0x85 JUMP JUMPDEST PUSH1 0x40 MLOAD PUSH2 0x5B SWAP2 SWAP1 PUSH2 0x4C9 JUMP JUMPDEST PUSH1 0x40 MLOAD DUP1 SWAP2 SUB SWAP1 RETURN JUMPDEST PUSH2 0x6C PUSH2 0x8B JUMP JUMPDEST STOP JUMPDEST CALLVALUE DUP1 ISZERO PUSH2 0x7A JUMPI PUSH1 0x0 DUP1 REVERT JUMPDEST POP PUSH2 0x83 PUSH2 0x2C6 JUMP JUMPDEST STOP JUMPDEST PUSH1 0x6 SLOAD DUP2 JUMP JUMPDEST PUSH8 0x1BC16D674EC80000 CALLVALUE EQ PUSH2 0xD5 JUMPI PUSH1 0x40 MLOAD PUSH32 0x8C379A000000000000000000000000000000000000000000000000000000000 DUP2 MSTORE PUSH1 0x4 ADD PUSH2 0xCC SWAP1 PUSH2 0x567 JUMP JUMPDEST PUSH1 0x40 MLOAD DUP1 SWAP2 SUB SWAP1 REVERT JUMPDEST PUSH1 0x0 CALLVALUE PUSH1 0x6 SLOAD PUSH2 0xE5 SWAP2 SWAP1 PUSH2 0x5B6 JUMP JUMPDEST SWAP1 POP PUSH1 0x4 SLOAD DUP2 GT ISZERO PUSH2 0x12C JUMPI PUSH1 0x40 MLOAD PUSH32 0x8C379A000000000000000000000000000000000000000000000000000000000 DUP2 MSTORE PUSH1 0x4 ADD PUSH2 0x123 SWAP1 PUSH2 0x658 JUMP JUMPDEST PUSH1 0x40 MLOAD DUP1 SWAP2 SUB SWAP1 REVERT JUMPDEST PUSH1 0x0 SLOAD DUP2 SUB PUSH2 0x192 JUMPI PUSH1 0x1 SLOAD PUSH1 0x7 PUSH1 0x0 CALLER PUSH20 0xFFFFFFFFFFFFFFFFFFFFFFFFFFFFFFFFFFFFFFFF AND PUSH20 0xFFFFFFFFFFFFFFFFFFFFFFFFFFFFFFFFFFFFFFFF AND DUP2 MSTORE PUSH1 0x20 ADD SWAP1 DUP2 MSTORE PUSH1 0x20 ADD PUSH1 0x0 KECCAK256 PUSH1 0x0 DUP3 DUP3 SLOAD PUSH2 0x186 SWAP2 SWAP1 PUSH2 0x5B6 JUMP JUMPDEST SWAP3 POP POP DUP2 SWAP1 SSTORE POP PUSH2 0x25C JUMP JUMPDEST PUSH1 0x2 SLOAD DUP2 SUB PUSH2 0x1F8 JUMPI PUSH1 0x3 SLOAD PUSH1 0x7 PUSH1 0x0 CALLER PUSH20 0xFFFFFFFFFFFFFFFFFFFFFFFFFFFFFFFFFFFFFFFF AND PUSH20 0xFFFFFFFFFFFFFFFFFFFFFFFFFFFFFFFFFFFFFFFF AND DUP2 MSTORE PUSH1 0x20 ADD SWAP1 DUP2 MSTORE PUSH1 0x20 ADD PUSH1 0x0 KECCAK256 PUSH1 0x0 DUP3 DUP3 SLOAD PUSH2 0x1EC SWAP2 SWAP1 PUSH2 0x5B6 JUMP JUMPDEST SWAP3 POP POP DUP2 SWAP1 SSTORE POP PUSH2 0x25B JUMP JUMPDEST PUSH1 0x4 SLOAD DUP2 SUB PUSH2 0x25A JUMPI PUSH1 0x5 SLOAD PUSH1 0x7 PUSH1 0x0 CALLER PUSH20 0xFFFFFFFFFFFFFFFFFFFFFFFFFFFFFFFFFFFFFFFF AND PUSH20 0xFFFFFFFFFFFFFFFFFFFFFFFFFFFFFFFFFFFFFFFF AND DUP2 MSTORE PUSH1 0x20 ADD SWAP1 DUP2 MSTORE PUSH1 0x20 ADD PUSH1 0x0 KECCAK256 PUSH1 0x0 DUP3 DUP3 SLOAD PUSH2 0x252 SWAP2 SWAP1 PUSH2 0x5B6 JUMP JUMPDEST SWAP3 POP POP DUP2 SWAP1 SSTORE POP JUMPDEST JUMPDEST JUMPDEST CALLVALUE PUSH1 0x6 PUSH1 0x0 DUP3 DUP3 SLOAD PUSH2 0x26E SWAP2 SWAP1 PUSH2 0x5B6 JUMP JUMPDEST SWAP3 POP POP DUP2 SWAP1 SSTORE POP CALLER PUSH20 0xFFFFFFFFFFFFFFFFFFFFFFFFFFFFFFFFFFFFFFFF AND PUSH32 0x5CF252CFE7D6524B0FD4E37008A2AA681DD2AF06B44DF112E00DA3835515A311 CALLVALUE PUSH1 0x40 MLOAD PUSH2 0x2BB SWAP2 SWAP1 PUSH2 0x4C9 JUMP JUMPDEST PUSH1 0x40 MLOAD DUP1 SWAP2 SUB SWAP1 LOG2 POP JUMP JUMPDEST PUSH1 0x4 SLOAD PUSH1 0x6 SLOAD LT ISZERO PUSH2 0x30D JUMPI PUSH1 0x40 MLOAD PUSH32 0x8C379A000000000000000000000000000000000000000000000000000000000 DUP2 MSTORE PUSH1 0x4 ADD PUSH2 0x304 SWAP1 PUSH2 0x6C4 JUMP JUMPDEST PUSH1 0x40 MLOAD DUP1 SWAP2 SUB SWAP1 REVERT JUMPDEST PUSH1 0x0 PUSH1 0x7 PUSH1 0x0 CALLER PUSH20 0xFFFFFFFFFFFFFFFFFFFFFFFFFFFFFFFFFFFFFFFF AND PUSH20 0xFFFFFFFFFFFFFFFFFFFFFFFFFFFFFFFFFFFFFFFF AND DUP2 MSTORE PUSH1 0x20 ADD SWAP1 DUP2 MSTORE PUSH1 0x20 ADD PUSH1 0x0 KECCAK256 SLOAD GT PUSH2 0x38F JUMPI PUSH1 0x40 MLOAD PUSH32 0x8C379A000000000000000000000000000000000000000000000000000000000 DUP2 MSTORE PUSH1 0x4 ADD PUSH2 0x386 SWAP1 PUSH2 0x730 JUMP JUMPDEST PUSH1 0x40 MLOAD DUP1 SWAP2 SUB SWAP1 REVERT JUMPDEST PUSH1 0x0 PUSH1 0x7 PUSH1 0x0 CALLER PUSH20 0xFFFFFFFFFFFFFFFFFFFFFFFFFFFFFFFFFFFFFFFF AND PUSH20 0xFFFFFFFFFFFFFFFFFFFFFFFFFFFFFFFFFFFFFFFF AND DUP2 MSTORE PUSH1 0x20 ADD SWAP1 DUP2 MSTORE PUSH1 0x20 ADD PUSH1 0x0 KECCAK256 SLOAD SWAP1 POP PUSH1 0x0 PUSH1 0x7 PUSH1 0x0 CALLER PUSH20 0xFFFFFFFFFFFFFFFFFFFFFFFFFFFFFFFFFFFFFFFF AND PUSH20 0xFFFFFFFFFFFFFFFFFFFFFFFFFFFFFFFFFFFFFFFF AND DUP2 MSTORE PUSH1 0x20 ADD SWAP1 DUP2 MSTORE PUSH1 0x20 ADD PUSH1 0x0 KECCAK256 DUP2 SWAP1 SSTORE POP CALLER PUSH20 0xFFFFFFFFFFFFFFFFFFFFFFFFFFFFFFFFFFFFFFFF AND PUSH2 0x8FC DUP3 SWAP1 DUP2 ISZERO MUL SWAP1 PUSH1 0x40 MLOAD PUSH1 0x0 PUSH1 0x40 MLOAD DUP1 DUP4 SUB DUP2 DUP6 DUP9 DUP9 CALL SWAP4 POP POP POP POP ISZERO DUP1 ISZERO PUSH2 0x45E JUMPI RETURNDATASIZE PUSH1 0x0 DUP1 RETURNDATACOPY RETURNDATASIZE PUSH1 0x0 REVERT JUMPDEST POP CALLER PUSH20 0xFFFFFFFFFFFFFFFFFFFFFFFFFFFFFFFFFFFFFFFF AND PUSH32 0x106F923F993C2149D49B4255FF723ACAFA1F2D94393F561D3EDA32AE348F7241 DUP3 PUSH1 0x40 MLOAD PUSH2 0x4A5 SWAP2 SWAP1 PUSH2 0x4C9 JUMP JUMPDEST PUSH1 0x40 MLOAD DUP1 SWAP2 SUB SWAP1 LOG2 POP JUMP JUMPDEST PUSH1 0x0 DUP2 SWAP1 POP SWAP2 SWAP1 POP JUMP JUMPDEST PUSH2 0x4C3 DUP2 PUSH2 0x4B0 JUMP JUMPDEST DUP3 MSTORE POP POP JUMP JUMPDEST PUSH1 0x0 PUSH1 0x20 DUP3 ADD SWAP1 POP PUSH2 0x4DE PUSH1 0x0 DUP4 ADD DUP5 PUSH2 0x4BA JUMP JUMPDEST SWAP3 SWAP2 POP POP JUMP JUMPDEST PUSH1 0x0 DUP3 DUP3 MSTORE PUSH1 0x20 DUP3 ADD SWAP1 POP SWAP3 SWAP2 POP POP JUMP JUMPDEST PUSH32 0x596F75206D7573742073656E642065786163746C79203120657468657220746F PUSH1 0x0 DUP3 ADD MSTORE PUSH32 0x20706C6179000000000000000000000000000000000000000000000000000000 PUSH1 0x20 DUP3 ADD MSTORE POP JUMP JUMPDEST PUSH1 0x0 PUSH2 0x551 PUSH1 0x25 DUP4 PUSH2 0x4E4 JUMP JUMPDEST SWAP2 POP PUSH2 0x55C DUP3 PUSH2 0x4F5 JUMP JUMPDEST PUSH1 0x40 DUP3 ADD SWAP1 POP SWAP2 SWAP1 POP JUMP JUMPDEST PUSH1 0x0 PUSH1 0x20 DUP3 ADD SWAP1 POP DUP2 DUP2 SUB PUSH1 0x0 DUP4 ADD MSTORE PUSH2 0x580 DUP2 PUSH2 0x544 JUMP JUMPDEST SWAP1 POP SWAP2 SWAP1 POP JUMP JUMPDEST PUSH32 0x4E487B7100000000000000000000000000000000000000000000000000000000 PUSH1 0x0 MSTORE PUSH1 0x11 PUSH1 0x4 MSTORE PUSH1 0x24 PUSH1 0x0 REVERT JUMPDEST PUSH1 0x0 PUSH2 0x5C1 DUP3 PUSH2 0x4B0 JUMP JUMPDEST SWAP2 POP PUSH2 0x5CC DUP4 PUSH2 0x4B0 JUMP JUMPDEST SWAP3 POP DUP3 PUSH32 0xFFFFFFFFFFFFFFFFFFFFFFFFFFFFFFFFFFFFFFFFFFFFFFFFFFFFFFFFFFFFFFFF SUB DUP3 GT ISZERO PUSH2 0x601 JUMPI PUSH2 0x600 PUSH2 0x587 JUMP JUMPDEST JUMPDEST DUP3 DUP3 ADD SWAP1 POP SWAP3 SWAP2 POP POP JUMP JUMPDEST PUSH32 0x47616D652068617320656E646564000000000000000000000000000000000000 PUSH1 0x0 DUP3 ADD MSTORE POP JUMP JUMPDEST PUSH1 0x0 PUSH2 0x642 PUSH1 0xE DUP4 PUSH2 0x4E4 JUMP JUMPDEST SWAP2 POP PUSH2 0x64D DUP3 PUSH2 0x60C JUMP JUMPDEST PUSH1 0x20 DUP3 ADD SWAP1 POP SWAP2 SWAP1 POP JUMP JUMPDEST PUSH1 0x0 PUSH1 0x20 DUP3 ADD SWAP1 POP DUP2 DUP2 SUB PUSH1 0x0 DUP4 ADD MSTORE PUSH2 0x671 DUP2 PUSH2 0x635 JUMP JUMPDEST SWAP1 POP SWAP2 SWAP1 POP JUMP JUMPDEST PUSH32 0x5468652067616D65206973206E6F7420636F6D706C6574652079657400000000 PUSH1 0x0 DUP3 ADD MSTORE POP JUMP JUMPDEST PUSH1 0x0 PUSH2 0x6AE PUSH1 0x1C DUP4 PUSH2 0x4E4 JUMP JUMPDEST SWAP2 POP PUSH2 0x6B9 DUP3 PUSH2 0x678 JUMP JUMPDEST PUSH1 0x20 DUP3 ADD SWAP1 POP SWAP2 SWAP1 POP JUMP JUMPDEST PUSH1 0x0 PUSH1 0x20 DUP3 ADD SWAP1 POP DUP2 DUP2 SUB PUSH1 0x0 DUP4 ADD MSTORE PUSH2 0x6DD DUP2 PUSH2 0x6A1 JUMP JUMPDEST SWAP1 POP SWAP2 SWAP1 POP JUMP JUMPDEST PUSH32 0x4E6F2072657761726420746F20636C61696D0000000000000000000000000000 PUSH1 0x0 DUP3 ADD MSTORE POP JUMP JUMPDEST PUSH1 0x0 PUSH2 0x71A PUSH1 0x12 DUP4 PUSH2 0x4E4 JUMP JUMPDEST SWAP2 POP PUSH2 0x725 DUP3 PUSH2 0x6E4 JUMP JUMPDEST PUSH1 0x20 DUP3 ADD SWAP1 POP SWAP2 SWAP1 POP JUMP JUMPDEST PUSH1 0x0 PUSH1 0x20 DUP3 ADD SWAP1 POP DUP2 DUP2 SUB PUSH1 0x0 DUP4 ADD MSTORE PUSH2 0x749 DUP2 PUSH2 0x70D JUMP JUMPDEST SWAP1 POP SWAP2 SWAP1 POP JUMP INVALID LOG2 PUSH5 0x6970667358 0x22 SLT KECCAK256 DIFFICULTY 0x4A INVALID 0x26 DIV 0xF 0xD PUSH19 0x81F4D9E83BD8DFB4249FCD1229FC11B26FDE04 PUSH6 0x5A0381AE6473 PUSH16 0x6C634300080D00330000000000000000 "
				},
				"gasEstimates": {
					"creation": {
						"codeDepositCost": "385200",
						"executionCost": "133060",
						"totalCost": "518260"
					},
					"external": {
						"claimReward()": "infinite",
						"depositedEther()": "2407",
						"play()": "infinite"
					}
				},
				"methodIdentifiers": {
					"claimReward()": "b88a802f",
					"depositedEther()": "8d103cde",
					"play()": "93e84cd9"
				}
			},
			"storageLayout": {
				"storage": [
					{
						"astId": 5,
						"contract": "Checkpoint.sol:Checkpoint",
						"label": "payoutMileStone1",
						"offset": 0,
						"slot": "0",
						"type": "t_uint256"
					},
					{
						"astId": 8,
						"contract": "Checkpoint.sol:Checkpoint",
						"label": "mileStoneReward1",
						"offset": 0,
						"slot": "1",
						"type": "t_uint256"
					},
					{
						"astId": 11,
						"contract": "Checkpoint.sol:Checkpoint",
						"label": "payoutMileStone2",
						"offset": 0,
						"slot": "2",
						"type": "t_uint256"
					},
					{
						"astId": 14,
						"contract": "Checkpoint.sol:Checkpoint",
						"label": "mileStoneReward2",
						"offset": 0,
						"slot": "3",
						"type": "t_uint256"
					},
					{
						"astId": 17,
						"contract": "Checkpoint.sol:Checkpoint",
						"label": "payoutMileStone3",
						"offset": 0,
						"slot": "4",
						"type": "t_uint256"
					},
					{
						"astId": 20,
						"contract": "Checkpoint.sol:Checkpoint",
						"label": "mileStoneReward3",
						"offset": 0,
						"slot": "5",
						"type": "t_uint256"
					},
					{
						"astId": 22,
						"contract": "Checkpoint.sol:Checkpoint",
						"label": "depositedEther",
						"offset": 0,
						"slot": "6",
						"type": "t_uint256"
					},
					{
						"astId": 26,
						"contract": "Checkpoint.sol:Checkpoint",
						"label": "redeemableEther",
						"offset": 0,
						"slot": "7",
						"type": "t_mapping(t_address,t_uint256)"
					}
				],
				"types": {
					"t_address": {
						"encoding": "inplace",
						"label": "address",
						"numberOfBytes": "20"
					},
					"t_mapping(t_address,t_uint256)": {
						"encoding": "mapping",
						"key": "t_address",
						"label": "mapping(address => uint256)",
						"numberOfBytes": "32",
						"value": "t_uint256"
					},
					"t_uint256": {
						"encoding": "inplace",
						"label": "uint256",
						"numberOfBytes": "32"
					}
				}
			},
			"userdoc": {
				"kind": "user",
				"methods": {},
				"version": 1
			}
		}
	}
}